:020000020000FC
:10000000209A219A229A239850E060E070E0A8EEAE
:10001000B3E08BD060FD43C05030F9F05130F9F0BF
:100020005230F9F05330F9F05430F9F05530F9F01E
:100030005630F9F05730F9F05830F9F05930F9F0FE
:100040005A30F9F05B30F9F05C30F9F05D30F9F0DE
:100050005E30F9F05F30F9F0DCCF0FE31EC006E050
:100060001CC00BE51AC00FE418C006E616C00DE66A
:1000700014C00DE712C007E010C00FE70EC00FE676
:100080000CC007E70AC00CE708C009E306C00EE58C
:1000900004C009E702C001E700C079D0BACF45D05B
:1000A00060FFB7CF5030F9F05130F9F05230F9F02D
:1000B0005330F9F05430F9F05530F9F05630F9F08A
:1000C0005730F9F05830F9F05930F9F05A30F9F06A
:1000D0005B30F9F05C30F9F05D30F9F05E30F9F04A
:1000E0005F30F9F0DCCF0FEB1EC006E81CC00BED53
:1000F0001AC00FEC18C006EE16C00DEE14C00DEFBE
:1001000012C007E810C00FEF0EC00FEE0CC007EFD3
:100110000AC00CEF08C009EB06C00EED04C009EFE1
:1001200002C001EF00C033D0BACF1B99089544D06C
:100130001197B1F01B9BFBCF613049F05F3021F08C
:10014000713001F153951EC050E071E01BC050307A
:1001500021F07130B9F05A9515C05FE071E012C01E
:10016000A8EEB3E029D0119741F01B9BFBCF713073
:1001700049F0613031F061E005C070E060E050E0CE
:1001800001C060E01B9BFECFA8EEB3E008950F9383
:100190001F931FB71F9318E0001F10F0289801C08D
:1001A000289A2A9A2A981A95B9F7299A29981F9174
:1001B0001FBF1F910F910895EDE5F0E0DAE2000016
:0A01C000DA95E9F73197D1F70895B9
:00000001FF
