:020000020000FC
:10000000209A219A229A23982B9A0FE32FD043D03B
:1000100006E02CD040D00BE529D03DD00FE426D00F
:100020003AD006E623D037D00DE620D034D00DE705
:100030001DD031D007E01AD02ED00FE717D02BD02B
:100040000FE614D028D007E711D025D00CE70ED04A
:1000500022D009E30BD01FD00EE508D01CD009E751
:1000600005D019D001E702D016D0CFCF0F931F9340
:100070001FB71F9318E0001F10F0289801C0289A9E
:100080002A9A2A981A95B9F7299A29981F911FBF79
:100090001F910F910895E0E2F0EDD3E70000DA95AB
:0800A000E9F73197D1F708954B
:00000001FF
