:020000020000FC
:10000000209A219A229A2398CED050E060E0A8EE60
:10001000B3E045D060FD6CC05030F9F05130F9F0DC
:100020005230F9F05330F9F05430F9F05530F9F01E
:100030005630F9F05730F9F05830F9F05930F9F0FE
:100040005A30F9F05B30F9F05C30F9F05D30F9F0DE
:100050005E30F9F05F30F9F0DCCF0FE31EC006E050
:100060001CC00BE51AC00FE418C006E616C00DE66A
:1000700014C00DE712C007E010C00FE70EC00FE676
:100080000CC007E70AC00CE708C009E306C00EE58C
:1000900004C009E702C001E700C070D0BACF1B99C5
:1000A000089581D0119781F01B9BFBCF613031F017
:1000B0005395503109F017C050E015C05A955F3F75
:1000C00009F011C05FE00FC0A8EEB3E06CD011974B
:1000D00031F01B9BFBCF613029F061E004C060E090
:1000E00050E001C060E01B9BFECFA8EEB3E0089596
:1000F000D6DF60FF8ECF5030F9F05130F9F052303A
:10010000F9F05330F9F05430F9F05530F9F0563039
:10011000F9F05730F9F05830F9F05930F9F05A3019
:10012000F9F05B30F9F05C30F9F05D30F9F05E30F9
:10013000F9F05F30F9F0DCCF0FEB1EC006E81CC011
:100140000BED1AC00FEC18C006EE16C00DEE14C071
:100150000DEF12C007E810C00FEF0EC00FEE0CC07D
:1001600007EF0AC00CEF08C009EB06C00EED04C093
:1001700009EF02C001EF00C001D0BACF0F931F9367
:100180001FB71F9318E0001F10F0289801C0289A8D
:100190002A9A2A981A95B9F7299A29981F911FBF68
:1001A0001F910F910895EDE5F0E0DAE20000DA9595
:0801B000E9F73197D1F708953A
:00000001FF
