S00D00004C61625F352E7372656374
S11300000C94D3000C94F0000C94F0000C94F000C9
S11300100C94F0000C94F0000C94F0000C94F0009C
S11300200C94F0000C94F0000C94F0000C94F0008C
S11300300C94F0000C94F0000C94F0000C94F0007C
S11300400C94F0000C94F0000C94F0000C94F0006C
S11300500C94F0000C94F0000C94F0000C94F0005C
S11300600C94F0000C94F0006E616E00696E6600F2
S113007000407A10F35A00A0724E18090010A5D45B
S1130080E80000E87648170000E40B54020000CAB8
S11300909A3B000000E1F5050000809698000000FE
S11300A040420F000000A08601000000102700005D
S11300B00000E803000000006400000000000A00E3
S11300C0000000000100000000002C76D888DC67E6
S11300D04F0823DFC1DFAE59E1B1B796E5E3E4533E
S11300E0C63AE651997696E8E6C28426EB898C9B5B
S11300F062ED407C6FFCEFBC9C9F40F2BAA56FA5FB
S1130100F490055A2AF75C936B6CF9676DC11BFC7C
S1130110E0E40D47FEF520E6B500D0ED902E030097
S1130120943577050080841E080000204E0A0000E4
S113013000C80C333333330F986E12831141EF8DA3
S11301402114893BE65516CFFEE6DB18D1844B38E3
S11301501BF77C1D901DA4BBE424203284725E2214
S11301608100C9F124ECA1E53D274E414E494E4999
S11301705459494E46CDCCCC3D0AD7233C17B7D170
S11301803877CC2B329595E6241FB14F0A00002016
S1130190410000C84200401C4620BCBE4CCA1B0E95
S11301A05AAEC59D740011241FBECFEFD8E0DEBF48
S11301B0CDBF12E0A0E0B1E0E2EDFAE102C00590AB
S11301C00D92A433B107D9F722E0A4E3B2E001C051
S11301D01D92A633B207E1F70E9498030C94670DB1
S11301E00C9400009093C5008093C40088E1809330
S11301F0C10086E08093C2000895E0ECF0E09081B5
S113020095FFFDCF8093C6000895CF93DF93EC0153
S11302108881882331F021960E94FD008991811103
S1130220FBCFDF91CF91089580E480937C00EAE7CF
S1130230F0E08081876080838081806880838FE99B
S11302409FE00197F1F700C000000895ECE7F0E0AB
S11302508081807F808380818083EAE7F0E08081F1
S113026080648083808186FDFDCF609178007091E9
S113027079008FE99FE00197F1F700C0000080E06A
S113028090E00E9424052AE038E240EA5BE30E9401
S1130290DB050895CF93C82F88E50E94C80380E04A
S11302A00E94F8038C2F0E94F8030E94EF03CF9161
S11302B00895CF93C82F88E50E94C80381E00E9467
S11302C0F8038C2F0E94F8030E94EF03CF91089546
S11302D00F931F93CF93DF93CDB7DEB760970FB61D
S11302E0F894DEBF0FBECDBF0E9426019F938F936B
S11302F07F936F9380E091E09F938F938E010F5FC4
S11303001F4F1F930F930E945B0B85E091E00E94A7
S11303100501C8010E9405018AE091E00E940501DF
S11303200FB6F894DEBF0FBECDBF60960FB6F8943B
S1130330DEBF0FBECDBFDF91CF911F910F91089506
S11303402F923F924F925F926F927F928F929F92E1
S1130350AF92BF92CF92DF92EF92FF920F931F93CF
S1130360CF93DF93CDB7DEB7A2970FB6F894DEBF75
S11303700FBECDBF6CE270E00E94010B009759F0F4
S11303808C010F5F1F4F6CE270E0C8010E94010BEB
S11303907C01892B29F48FE091E00E9405017AC049
S11303A0C8010E94000A4C01C70101960E94000A7C
S11303B08C01C4010297439728F08BE291E00E94DC
S11303C0050168C0C80101970A9720F4181419049C
S11303D034F060C084E591E00E9405015BC0C12C4B
S11303E0D12CE12CF12C9E012F5F3F4F39015E018E
S11303F031E1A30EB11CC40101979AA389A30E9401
S11304002601562E472E382E292EFF92EF9228E7EA
S113041031E03F932F937F926F920E945B0BC30155
S11304200E9405012F923F924F925F9283E891E0E0
S11304309F938F93BF92AF920E945B0BC5010E9462
S113044005018FE192E00E9405010FB6F894DEBF2A
S11304500FBECDBF29A13AA1C216D306A4F410162B
S113046011067CF480E090E03FEF43ED20E331504F
S113047040402040E1F700C000000196081719072A
S113048099F7E00EF11E3FEFC31AD30A8C149D04B2
S113049009F0B5CFA2960FB6F894DEBF0FBECDBF5C
S11304A0DF91CF911F910F91FF90EF90DF90CF904C
S11304B0BF90AF909F908F907F906F905F904F9080
S11304C03F902F9008958F929F92AF92BF92CF92B8
S11304D0DF92EF92FF920F931F93CF93DF93CDB7E9
S11304E0DEB7A0970FB6F894DEBF0FBECDBF6CE2A7
S11304F070E00E94010B009759F08C010F5F1F4FB1
S11305006CE270E0C8010E94010B7C01892B29F484
S11305108AE891E00E9405017AC0C8010E94000A9D
S11305208C01C70101960E94FC096B017C01023019
S1130530110528F086EA91E00E94050168C020E0D8
S113054030E0A9010E947704882354F020E030E0D1
S113055040EA50E4C701B6010E94D60518162CF4EF
S113056086EC91E00E94050152C020E030E040E8B2
S113057053E4C701B6010E94DB0520E030E040EA05
S113058050E40E947C0420E030E040E05FE30E94FD
S11305900B040E94EE046B017C01072E000C880BF7
S11305A0990B0E94260520E030E040EA5CE30E94BB
S11305B0DB05B62EA72E982E892E012B41F4C601F9
S11305C00E944A0187EE91E00E94050107C0C6011E
S11305D00E9459018DEF91E00E940501DF92CF92B4
S11305E08F929F92AF92BF9283E192E09F938F93F9
S11305F08E010F5F1F4F1F930F930E945B0BC80167
S11306000E9405010FB6F894DEBF0FBECDBFA096C1
S11306100FB6F894DEBF0FBECDBFDF91CF911F910F
S11306200F91FF90EF90DF90CF90BF90AF909F908D
S11306308F9008958D3459F0833529F0873459F417
S11306400E9468010895CB010E9463020895CB01C2
S11306500E94A001089582E292E00E94050108959B
S1130660CF92DF92EF92FF920F931F93CF93DF937A
S1130670DC01C12CD12C760140E050E09B012150DB
S11306803109E0ECF0E006EC10E034C090819923ED
S1130690BCF4E80198819D3011F09A3031F4A40F34
S11306A0B51F1C92842F952F31C07D01E40EF51ED9
S11306B0E70198834F5F5F4FC12CD12C76011AC09C
S11306C08FE99FE00197F1F700C000009FEFC91A7E
S11306D0D90AE90AF90AC5E6CC16D104E104F10401
S11306E048F0A40FB51F1C92141615066CF4842F41
S11306F0952F0CC0822F932F421753073CF2A60F5D
S1130700B71F11971C9202C08FEF9FEFDF91CF911B
S11307101F910F91FF90EF90DF90CF90089587E69F
S113072090E00E94F2000E9414010E94C203089506
S1130730CF93DF93CDB7DEB7A0970FB6F894DEBFA3
S11307400FBECDBF0E948F038E010E5F1F4F0F2E71
S1130750F1E2EF2EF2E0FF2EF02D60E270E0CE0128
S113076001960E94300318161906BCF729810297D6
S11307701CF46E2D7F2D02C0602F712F822F0E94DA
S11307801A03EBCF1092B90088E98093B80008955A
S113079094EA9093BC00ECEBF0E090819923ECF7A1
S11307A09091B900987F983011F09031A1F4809322
S11307B0BB0084E88093BC00ECEBF0E080818823EC
S11307C0ECF79091B900987F983139F081E090343A
S11307D029F480E0089581E0089580E0089584E993
S11307E08093BC00ECEBF0E0808184FDFDCF0895A4
S11307F08093BB0084E88093BC00ECEBF0E0808144
S11308008823ECF79091B900987F81E0983209F43D
S113081080E008955058BB27AA270E9422040C9414
S11308209C050E948E0538F00E94950520F039F44D
S11308309F3F19F426F40C948B050EF4E095E7FB26
S11308400C948505E92F0E94AD0558F3BA17620789
S113085073078407950720F079F4A6F50C94CF0567
S11308600EF4E0950B2EBA2FA02D0B01B9019001C7
S11308700C01CA01A0011124FF27591B99F0593F0B
S113088050F4503E68F11A16F040A22F232F342F53
S11308904427585FF3CF469537952795A795F040A1
S11308A05395C9F77EF41F16BA0B620B730B840BB6
S11308B0BAF09150A1F0FF0FBB1F661F771F881F6E
S11308C0C2F70EC0BA0F621F731F841F48F48795C6
S11308D077956795B795F7959E3F08F0B0CF9395B8
S11308E0880F08F09927EE0F9795879508950E9431
S11308F0610508F481E008950E9490040C949C051D
S11309000E94950558F00E948E0540F029F45F3F3F
S113091029F00C94850551110C94D0050C948B0589
S11309200E94AD0568F39923B1F3552391F3951B08
S1130930550BBB27AA2762177307840738F09F5FFC
S11309405F4F220F331F441FAA1FA9F335D00E2E69
S11309503AF0E0E832D091505040E695001CCAF7D6
S11309602BD0FE2F29D0660F771F881FBB1F261799
S113097037074807AB07B0E809F0BB0B802DBF0170
S1130980FF2793585F4F3AF09E3F510578F00C943F
S113099085050C94D0055F3FE4F3983ED4F3869527
S11309A077956795B795F7959F5FC9F7880F911D60
S11309B09695879597F90895E1E0660F771F881F4C
S11309C0BB1F621773078407BA0720F0621B730BFF
S11309D0840BBA0BEE1F88F7E09508950E94F50486
S11309E06894B1110C94D00508950E94B50588F05F
S11309F09F5798F0B92F9927B751B0F0E1F0660FDF
S1130A00771F881F991F1AF0BA95C9F714C0B1301F
S1130A1091F00E94CF05B1E008950C94CF05672FA3
S1130A20782F8827B85F39F0B93FCCF3869577954E
S1130A306795B395D9F73EF4909580957095619537
S1130A407F4F8F4F9F4F0895E89409C097FB3EF462
S1130A5090958095709561957F4F8F4F9F4F992307
S1130A60A9F0F92F96E9BB279395F6958795779585
S1130A706795B795F111F8CFFAF4BB0F11F460FF45
S1130A801BC06F5F7F4F8F4F9F4F16C0882311F09D
S1130A9096E911C0772321F09EE8872F762F05C0B1
S1130AA0662371F096E8862F70E060E02AF09A954C
S1130AB0660F771F881FDAF7880F9695879597F941
S1130AC00895990F0008550FAA0BE0E8FEEF1616DB
S1130AD01706E807F907C0F012161306E407F5072E
S1130AE098F0621B730B840B950B39F40A2661F0A2
S1130AF0232B242B252B21F408950A2609F4A14045
S1130B00A6958FEF811D811D089597F99F6780E851
S1130B1070E060E008959FEF80EC089500240A944B
S1130B201616170618060906089500240A941216C4
S1130B301306140605060895092E0394000C11F4F7
S1130B40882352F0BB0F40F4BF2B11F460FF04C0A4
S1130B506F5F7F4F8F4F9F4F089557FD9058440FFD
S1130B60551F59F05F3F71F04795880F97FB991F08
S1130B7061F09F3F79F087950895121613061406C5
S1130B80551FF2CF4695F1DF08C016161706180652
S1130B90991FF1CF86957105610508940895E8942D
S1130BA0BB2766277727CB0197F908950E94610533
S1130BB008F48FEF08950E94EE050C949C050E94A2
S1130BC08E0538F00E94950520F0952311F00C94C1
S1130BD085050C948B0511240C94D0050E94AD0559
S1130BE070F3959FC1F3950F50E0551F629FF0017C
S1130BF0729FBB27F00DB11D639FAA27F00DB11D95
S1130C00AA1F649F6627B00DA11D661F829F22271D
S1130C10B00DA11D621F739FB00DA11D621F839FA4
S1130C20A00D611D221F749F3327A00D611D231F7A
S1130C30849F600D211D822F762F6A2F11249F57C8
S1130C4050409AF0F1F088234AF0EE0FFF1FBB1FCB
S1130C50661F771F881F91505040A9F79E3F51058A
S1130C6080F00C9485050C94D0055F3FE4F3983E26
S1130C70D4F3869577956795B795F795E7959F5F34
S1130C80C1F7FE2B880F911D9695879597F90895C6
S1130C90A0E1B0E0EEE4F6E00C94C5097C011B0190
S1130CA06A01FC0117821682838181FF44C39E017D
S1130CB02F5F3F4F3901F7019381F10193FD859136
S1130CC093FF81911F01882309F431C3853239F4DC
S1130CD093FD859193FF81911F01853239F4B7010A
S1130CE090E00E941F0B56016501E5CF10E0512CE6
S1130CF0912CFFE1F915D8F08B3279F038F4803279
S1130D0079F08332A1F4F92DF0612EC08D3261F0B7
S1130D10803369F4292D21602DC0392D3260932E42
S1130D20892D8460982E2AC0E92DE86015C097FCAF
S1130D302DC020ED280F2A3088F496FE06C03AE034
S1130D40139F200D1124122F19C08AE0589E200DE4
S1130D501124522EE92DE0629E2E10C08E3231F401
S1130D6096FCE5C2F92DF0649F2E08C08C3621F460
S1130D70292D2068922E02C0883641F4F10193FD9A
S1130D80859193FF81911F018111B3CF9BEB980F44
S1130D90933020F4992D9061805E07C09BE9980FF1
S1130DA0933008F066C1992D9F7E96FF16E09F73DD
S1130DB0992E853619F49064992E08C0863621F44C
S1130DC0392F3068932E02C01111115097FE07C0BD
S1130DD01C3350F444244394410E27E00BC01830D4
S1130DE038F027E017E005C027E09CE3492E02C055
S1130DF0212F412C560184E0A80EB11CF60160811C
S1130E00718182819381042DA3010E941E0A6C01C9
S1130E10F981FC87F0FF02C0F3FF06C091FC06C015
S1130E2092FE06C000E205C00DE203C00BE201C061
S1130E3000E08C858C7019F001115AC29BC297FE98
S1130E4010C04C0CFC85F4FF04C08A81813309F482
S1130E504A94141474F528E0241578F588E0482E93
S1130E602CC096FC2AC0812F90E08C159D059CF027
S1130E703CEFC3163FEFD30674F0892D8068982E9B
S1130E800AC0E2E0F0E0EC0FFD1FE10FF11D8081EC
S1130E90803319F411501111F4CF97FE0EC044247D
S1130EA04394410E812F90E0C816D9062CF41C19E6
S1130EB004C04424439401C010E097FE06C01C14EF
S1130EC01D0434F4C601019605C085E090E002C01B
S1130ED081E090E001110196112331F0212F30E0DF
S1130EE02F5F3F4F820F931F252D30E0821793070A
S1130EF014F4581A01C0512C892D897049F45520D5
S1130F0039F0B70180E290E00E941F0B5A94F7CFAA
S1130F10002329F0B701802F90E00E941F0B93FC5F
S1130F2009C0552039F0B70180E390E00E941F0BFF
S1130F305A94F7CF97FE4CC04601D7FE02C0812CCD
S1130F40912CC60188199909F301E80FF91FFE874E
S1130F50ED87960124193109388B2F87012F10E072
S1130F601195019511093FEF8316930629F4B701F2
S1130F708EE290E00E941F0BC814D9044CF08F85B8
S1130F8098898815990524F4ED85FE85818101C031
S1130F9080E3F1E08F1A91082D853E852F5F3F4F46
S1130FA03E872D87801691062CF0B70190E00E94B1
S1130FB01F0BD9CFC814D90441F49A81963320F475
S1130FC0953319F43C8534FF81E3B70190E04EC0BA
S1130FD08A81813319F09C859F7E9C87B70190E0BC
S1130FE00E941F0B111105C094FC18C085E690E007
S1130FF017C0B7018EE290E00E941F0B1E5F82E0D3
S113100001E0080FF301E80FF11D8081B70190E0C2
S11310100E941F0B802F0113F3CFE6CF85E490E0ED
S1131020B7010E941F0BD7FC06C0C114D10441F4C0
S1131030EC85E4FF05C0D194C194D1088DE201C0D0
S11310408BE2B70190E00E941F0B80E32AE0C216F6
S1131050D1042CF08F5FFAE0CF1AD108F7CFB70193
S113106090E00E941F0BB701C601C0960E941F0B9F
S113107054C1833631F0833779F0833509F056C093
S113108020C0560132E0A30EB11CF6018081898391
S113109001E010E0630112C05601F2E0AF0EB11C92
S11310A0F601C080D18096FE03C0612F70E002C0BB
S11310B06FEF7FEFC6010E940C0B8C01F92DFF77B7
S11310C014C0560122E0A20EB11CF601C080D180EA
S11310D096FE03C0612F70E002C06FEF7FEFC60180
S11310E00E94F60A8C01F92DF0689F2EF3FD1AC0B8
S11310F0852D90E008171907A8F4B70180E290E065
S11311000E941F0B5A94F4CFF60197FC859197FE29
S113111081916F01B70190E00E941F0B51105A9406
S1131120015011090115110579F7F7C0843611F042
S1131130893661F5560197FE09C024E0A20EB11C60
S1131140F60160817181828193810AC0F2E0AF0E61
S1131150B11CF60160817181072E000C880B990B7C
S1131160F92DFF769F2E97FF09C090958095709575
S113117061957F4F8F4F9F4FF0689F2E2AE030E09C
S1131180A3010E947D0BC82EC6183FC0092D8537C8
S113119021F40F7E2AE030E01DC0097F8F3691F0E4
S11311A018F4883559F0C3C0803719F0883711F026
S11311B0BEC0006104FF09C0046007C094FE08C0FB
S11311C0066006C028E030E005C020E130E002C03F
S11311D020E132E0560107FF09C084E0A80EB11CEB
S11311E0F601608171818281938108C0F2E0AF0EC3
S11311F0B11CF6016081718180E090E0A3010E943E
S11312007D0BC82EC6180F77902E96FE0BC0092DA5
S11312100E7FC11650F494FE0AC092FC08C0092D3A
S11312200E7E05C0DC2C092D03C0DC2C01C0D12EA0
S113123004FF0DC0FE01EC0DF11D8081803311F41B
S1131240097E09C002FF06C0D394D39404C0802F42
S1131250867809F0D39403FD11C000FF06C01C2D4D
S1131260D51480F4150D1D190DC0D51458F4B7010B
S113127080E290E00E941F0BD394F7CFD51410F4B2
S11312805D1801C0512C04FF10C0B70180E390E049
S11312900E941F0B02FF17C001FD03C088E790E006
S11312A002C088E590E0B7010CC0802F867859F021
S11312B001FF02C08BE201C080E207FD8DE2B701AD
S11312C090E00E941F0BC11638F4B70180E390E050
S11312D00E941F0B1150F7CFCA94F301EC0DF11DBE
S11312E08081B70190E00E941F0BC110F5CF15C09B
S11312F0F4E0F51560F584E0581A93FE1FC001115F
S113130027C02C8523FF2AC008E610E0392D307150
S1131310932EF8018491811124C0552009F4E4CC62
S1131320B70180E290E00E941F0B5A94F6CFF701B8
S11313308681978126C08FEF9FEF23C0B70180E29B
S113134090E00E941F0B5A945110F8CFD8CF512C23
S1131350B701802F90E00E941F0BD3CF0CE610E062
S1131360D5CF91108052B70190E00E941F0B0F5F00
S11313701F4FCFCF23E0251510F483E0BDCF512CB0
S1131380C0CF6096E2E10C94E1092F923F924F9214
S11313905F926F927F928F929F92AF92BF92CF9201
S11313A0DF92EF92FF920F931F93CF93DF93CDB70A
S11313B0DEB7CA1BDB0B0FB6F894DEBF0FBECDBF82
S11313C009942A88398848885F846E847D848C8453
S11313D09B84AA84B984C884DF80EE80FD800C815C
S11313E01B81AA81B981CE0FD11D0FB6F894DEBF3F
S11313F00FBECDBFED010895662777270C94DB0B54
S1131400FC0188279927E89421912032E9F32930B7
S113141010F02E30C8F32B3241F02D3239F4689499
S113142004C00E94170B820F911D219120532A3072
S1131430C0F31EF4909581959F4F0895283008F0CD
S113144027E03327DA01990F311D87FD916000965B
S11314506105710539F432602E5F3D9330E32A95BE
S1131460E1F708959F3F30F080387105610509F078
S11314703C5F3C5F3D93913008F08068911DDF93A1
S1131480CF931F930F93FF92EF92192F987F969506
S1131490E92F96959695E90FFF27E653FF4F992775
S11314A03327EE24FF24A701E7010590089407944D
S11314B028F4360FE71EF81E491F511D660F771FCB
S11314C0881F991F0694A1F70590079428F4E70E46
S11314D0F81E491F561FC11D770F881F991F661FCD
S11314E00694A1F70590079428F4F80E491F561F97
S11314F0C71FD11D880F991F661F771F0694A1F778
S11315000590079420F4490F561FC71FD81F990F41
S1131510661F771F881F0694A9F78491109517708A
S113152041F0D695C79557954795F794E7941A9542
S1131530C1F7E0E7F0E06894159015913591659155
S1131540959105907FE27395E118F10A430B560BD0
S1131550C90BD009C0F7E10CF11E431F561FC91F68
S1131560D01D7EF4703311F48A95E6CFE8940150CF
S113157030F0080F0AF40027021708F4202F2395EF
S1131580022F7A3328F079E37D932A95E9F710C086
S11315907D932A9589F606949795679537951795BF
S11315A01794E118F10A430B560BC90BD00998F0B4
S11315B023957E9173957A3308F070E37C9320131E
S11315C0B8F77E9170617D9330F0839571E37D93DC
S11315D070E32A95E1F71124EF90FF900F911F918A
S11315E0CF91DF91992787FD90950895FC0105908F
S11315F0615070400110D8F7809590958E0F9F1F11
S11316000895FC018191861721F08823D9F7992741
S113161008953197CF010895FC0161507040019005
S11316200110D8F7809590958E0F9F1F08957AE04A
S1131630979F902D879F802D910D112408950F93CE
S11316401F93CF93DF93FB01238121FD03C08FEF11
S11316509FEF2CC022FF16C046815781248135811B
S11316604217530744F4A081B1819D012F5F3F4F7E
S1131670318320838C93268137812F5F3F4F3783BB
S1131680268314C08B01EC01FB010084F185E02D5D
S11316900995892BE1F6D80116968D919C9117979F
S11316A0019617969C938E931697CE01DF91CF9156
S11316B01F910F910895AEE0B0E0E1E6FBE00C94D9
S11316C0D3090D891E8986E08C831A8309838FEFE1
S11316D09FE79E838D83AE01475E5F4F6F89788D50
S11316E0CE0101960E944806EF81F885E00FF11FB4
S11316F010822E96E4E00C94EF09FA01AA27283010
S113170051F1203181F1E8946F936E7F6E5F7F4FCA
S11317108F4F9F4FAF4FB1E03ED0B4E03CD0670F46
S1131720781F891F9A1FA11D680F791F8A1F911D99
S1131730A11D6A0F711D811D911DA11D20D009F4E9
S113174068943F912AE0269F11243019305D31932B
S1131750DEF6CF010895462F4770405D4193B3E014
S11317600FD0C9F7F6CF462F4F70405D4A3318F0BB
S1131770495D31FD4052419302D0A9F7EACFB4E06C
S1131780A6959795879577956795BA95C9F7009724
S11317906105710508959B01AC010A2E06945795C5
S11317A0479537952795BA95C9F7620F731F841F1C
S11317B0951FA01D0895A0E0B0E0E1EEFBE00C94BD
S11317C0CB09EC016B016115710519F0FB019183E3
S11317D080837E01FFEFEF1AFF0A0881802F90E0DB
S11317E00E94290D892B11F0E701F3CF0D3239F452
S11317F07E0182E0E80EF11C098111E008C00B3281
S113180029F47E0192E0E90EF11C098110E0E70160
S1131810219743E050E062E771E0CE010E94320D6F
S1131820892BC1F4239645E050E06DE671E0CE01CA
S11318300E94320D892B09F42596C114D10419F0A4
S1131840F601D183C0831111F6C060E070E080E836
S11318509FE7FAC043E050E06AE671E0CE010E94DF
S1131860320D892B59F4C114D10409F4E9C0F2E012
S1131870EF0EF11CF601F182E082E2C020E030E0DC
S1131880A901C0E0D0E0F70180EDA82EA00E89E008
S11318908A1530F1912F9260B92E812F887012FF32
S11318A004C0811124C0219622C081112197A5E092
S11318B0B0E00E944D0DDC01CB01880F991FAA1FD7
S11318C0BB1F9C01AD012A0D311D411D511D28393D
S11318D089E93807480789E1580748F0166006C0C7
S11318E09EEFA9120AC013FD40C01860B12E8FEFFD
S11318F0E81AF80A00811B2DC6CF802F8F7D85340E
S1131900A1F580818D3211F4106106C08B3221F073
S1131910319661E070E004C08181329662E070E04B
S113192080538A3018F0E61BF70B1FC060E070E0AC
S113193060389CE079075CF4DB01AA0FBB1FAA0F97
S1131940BB1F6A0F7B1F660F771F680F711D3196CF
S1131950DF0111978C9180538A3050F314FF03C038
S1131960719561957109C60FD71F11FF08C0C11485
S1131970D10429F0CF010197F60191838083CA0134
S1131980B9010E942405212F2370233019F04B0143
S11319905C0106C04B015C01B7FAB094B7F8B0948F
S11319A020E030E0A901C501B4010E947704882336
S11319B009F43EC0D7FF06C0D195C195D10909E805
S11319C011E002C001EA11E06801F8E1CF1AD10880
S11319D090E2E92EF12CCE15DF0574F0F801259183
S11319E0359145915491C501B4010E94DB054B0129
S11319F05C01CE19DF09EFCF04501109F594E79487
S1131A000C151D0541F78A2D880F8B2D881F8F3FDC
S1131A1049F020E030E0A901C501B4010E94770437
S1131A20811106C082E290E09093350280933402E3
S1131A30C501B40109C060E070E080E89FEF04C014
S1131A4060E070E080EC9FE7CDB7DEB7ECE00C948B
S1131A50E70991110C944A0D803219F08950855090
S1131A60C8F70895FB01DC014150504088F08D9186
S1131A7081341CF08B350CF4805E659161341CF06C
S1131A806B350CF4605E861B611171F3990B08953C
S1131A90881BFCCF9927882708950E94580DA59F7D
S1131AA0900DB49F900DA49F800D911D1124089555
S1131AB0A29FB001B39FC001A39F700D811D11248B
S1131AC0911DB29F700D811D1124911D0895F894EC
S1051AD0FFCF42
S1131AD2252E33660076203D200020560D0A00454F
S1131AE272726F723A20496E636F72726563742008
S1131AF24D20666F726D61740D0A004572726F72C9
S1131B023A204E756D626572206F6620726561645B
S1131B12696E6773206D75737420626520322D328D
S1131B22300D0A004572726F723A2044656C617915
S1131B32206D75737420626520312D3130207365F8
S1131B42636F6E64730D0A00743D256420732C2048
S1131B52763D00252E33662056004572726F723A26
S1131B6220496E636F7272656374205320666F72CC
S1131B726D61740D0A004572726F723A2043686196
S1131B826E6E656C206D7573742062652030206FF3
S1131B927220310D0A004572726F723A20566F6CD0
S1131BA274616765206D75737420626520302E3010
S1131BB22D352E300D0A00444143206368616E6E58
S1131BC2656C20302073657420746F200044414397
S1131BD2206368616E6E656C2031207365742074B5
S1131BE26F2000252E326620562028256464290D94
S1131BF20A00556E6B6E6F776E20636F6D6D616E4A
S1071C02640D0A005F
S9030000FC
